:1000000000000220696A0000656A0000656A00005D
:10001000656A0000656A0000656A0000656A0000A4
:10002000656A0000656A0000656A0000656A000094
:10003000656A0000656A0000656A0000656A000084
:10004000656A000001670000656A0000656A0000DB
:10005000D91800000567000009670000196A000050
:1000600011670000656A0000656A0000656A0000AB
:10007000656A0000656A0000656A0000656A000044
:10008000656A0000656A0000656A0000656A000034
:10009000656A0000656A0000656A0000656A000024
:1000A000656A0000656A0000656A0000656A000014
:1000B000916700000D670000656A0000F1660000AE
:1000C000656A0000D5390000656A0000656A0000B5
:1000D000656A0000656A0000656A0000656A0000E4
:1000E000656A0000656A0000656A0000656A0000D4
:1000F000656A0000656A0000656A0000656A0000C4
:10010000656A0000656A0000656A000010B5054C6C
:10011000237833B9044B13B10448AFF300800123B3
:10012000237010BDA800002000000000BC95000056
:100130000C4B43B10C480D4910B5AFF300800C488F
:10014000036823B910BD0A48036833B97047094BE7
:10015000002BF7D0BDE810401847064B002BF5D018
:10016000184700BF00000000BC950000AC00002054
:10017000A400002000000000154B002B08BF134B0B
:100180009D46A3F5803A00218B460F461348144A3A
:10019000121A06F0CBFC0F4B002B00D098470E4BE9
:1001A000002B00D098470020002104000D000D48CE
:1001B000002802D00C48AFF3008006F093FC20002A
:1001C000290000F015F806F079FC00BF00000800D7
:1001D000000002200000000000000000A800002035
:1001E000281B0020000000000000000000000000AC
:1001F0002DE98048364B5B6813F48063A7B008D0C4
:100200004FF000531B68A3F1020EDEF1000343EB35
:100210000E034FF0005200211160002B42D11EA8A6
:1002200006F008F805F050FF054600283AD09DF882
:100230007830012B30D1446B05F0ECFF209B5F0739
:1002400013D505F041FF05F0C5FF044605F0D2FFC8
:1002500044B305F039FF044605F036FF1D4B9860A6
:1002600023689D46636898471CE084B105F07AFED8
:1002700084420CD205F076FE04F13803834206D89E
:10028000636923B1204605F0FFFE0028D9D105F5AA
:10029000867005F0F9FED8E700F5867005F0F4FEEB
:1002A0000028D6D10C4AD36C1B0E93461CD10B49A7
:1002B0000B484AF6E8520A60026842F00402026003
:1002C0000B60084A136843F4005313600EE000BF4C
:1002D00000500E4000ED00E0B081E00F90310E4084
:1002E00098310E4064310E40012BEAD0B34A136AB4
:1002F00023F4441343F488131362A2F58042136875
:1003000043F480731360AE4B02229A639A6B02F03F
:100310000F02022A40F0B180DA6C22F0405222F043
:10032000010242F00102DA64D3F8EC2042F4407298
:10033000C3F8EC20DA6E42F08072DA66A14B1868DE
:1003400000B1042004F0C0F99F4B9D4CC8221A80D4
:100350009E4BA0221A809E4B0F200027188004F08D
:100360004BF99C4BA36518972097169717971E97E4
:100370001F97DBF86831C3F30722DBB22092189392
:10038000E36CC3F301794B463A461EA916A804F064
:10039000ADF9D4F8EC30C3F3012843463A461FA91F
:1003A00017A804F0A3F9DDF860E016991798209BD0
:1003B000DDF878C0DDF87CA04FF41672A3EB0E03D5
:1003C000ACEB0105AAEB000653435543B3FBF2F334
:1003D000B5FBF2F55643B6FBF2F6209A73449A4207
:1003E0000D44064449D39E4547D8B24545D3B04253
:1003F00043D8AC4541D3A9423FD8E26D22F4FE4236
:1004000022F0020242EA0323E3653946484604F03B
:10041000BFF8002831D00121404604F0B9F860B39C
:10042000636EB54238BF3546E72D23F4FF7328BF0E
:10043000E72523F0010343EA45036366E36B43F4D6
:100440008063E3632146A36FDE07FCD4236C624A1A
:1004500013F003030DD0012313608B6FDD07FCD471
:100460000B6C23F003030B6455498B6F13F00103EE
:10047000FBD11360594B01221A60504C584E112089
:1004800004F0B6F90021022003F03EFF636A5548EC
:1004900023F001036362544B00251D60A36A23F01F
:1004A000070343F00603A362504BE362226B504BF9
:1004B00002F07F62134323634E4B6363294604F0CB
:1004C0006FF94D4806F06EFA0121022003F01CFF7F
:1004D000376C444841F671333364294606F032FAEA
:1004E00007B13564454B1D68002DFCD102236367BD
:1004F000434806F071F906F055FA06F0D1FA0646BF
:1005000004F040F90146304606F03EFA666A04F00F
:1005100039F90146334806F037FA46F0405631487B
:1005200006F040FA6662D4F8C83043F00103C4F81C
:10053000C830344BDBF828209A650AA908AA352070
:1005400005F018FD30B19DF82030042B06BF0A9B42
:1005500018682846C40340F1A6802A4800230CAA44
:10056000816D99540133062BFAD19DF8353043F053
:1005700060038DF835309DF8363043F001038DF877
:100580003630214B5A60214A214B136053609360EF
:100590004FF480700023908293751382D3751D4AA7
:1005A0001D49116051609160908293751382D375DB
:1005B0001A4A1B480821117034E000BF00400E4069
:1005C00000300E408009C6437614002078140020C5
:1005D00074140020372110B7B40AC6439407C643E9
:1005E00000000E4000F04902A004C84320000500AE
:1005F00007450BD047A002000148E801C800C643E8
:100600000025080000500840C800002014190020F0
:100610006C060020FC1800206C0500203809002022
:100620006C070020324A33491160334A3349116064
:10063000334A34491160344A3449506034481160B7
:100640000260344892460160916A334ACAF88C309D
:10065000994208BF1146314ACAF85430CAF8583096
:10066000AAF84030AAF8423064231160AAF8443056
:10067000AAF84630AAF84830AAF84A30AAF84C300E
:10068000AAF84E304FF6FF73AAF81430112004F088
:10069000AFF8042805D1224B5B6813F4403F00F00B
:1006A00068860023A4E20DF11F020AA92C2005F0A0
:1006B00061FC00283FF467AF0CAC9DF81F200A993D
:1006C000204606F0BCFF0DF11F020AA93C2005F0F0
:1006D00051FC9DF8363040B10A9A127862F300035B
:1006E0008DF836300F4B5C604DE760F30003F7E7A1
:1006F000480B00200C780000500B002024780000EC
:100700004C0B002014780000780700209D2B00007F
:10071000481A002014000020A52100002C00002011
:1007200000300E40C800002002EA0406864203F1B1
:10073000080308BF15608B4203D013E92400002A88
:10074000F2D1BE4BBE4C5A691A691A699A69DB69C3
:10075000BC4BC4F8443148F2E673C4F838314FF466
:100760000863C4F83431B84BC4F8A030B74BB84D67
:10077000B84E4AF63F429A6003F580434FF0C0728C
:100780009A620023C4F8FC30B34BC4F89C30B34BDE
:100790007F221A6003F1007323221A6003F542538B
:1007A000343303221A604FF40023C4F89430012735
:1007B00040232F60AA4A2B604FF4607333604FF0E0
:1007C00040731360936103F007F93760049503F0F9
:1007D0009DF905460028FAD101234FF00450E06747
:1007E00041F2D812C4F880309E499F4E06F027FF90
:1007F0009E4B2366A42229469D48376806F096F949
:100800009C4B9D4A5A602946642237609B4806F0FB
:100810008DF9C4F88850C4F88C50C4F89050DBF8B7
:100820005420DBF80030D2B2FF2A43F3074301D053
:10083000581C01D1902219238D49914F022093FB1E
:10084000F0F342FA83F3CB7323234B738D4B8873FE
:100850004FF603721A6003F10073049A8A494FF04D
:100860000008C3F800804FF080431360874B884A2C
:100870001A60884B03221A60596040F6FF71596272
:10088000854B1A80854B864AA3F80080854BC3F8B8
:1008900000805A604FF400525A62834BDFF8608246
:1008A000F0221A6003F10073A0221A607F4B012628
:1008B000C3F8B86004F0A2FF7D4B7E481E607E4BFB
:1008C0001E607E4B3B6003F023FA4FF4FA734FF443
:1008D0007A74B0FBF4F56B43180210EB08004FEA92
:1008E00013614FF000094FF00003754A41EB090115
:1008F00006F00EFDA0F580738046BB6218B92B2070
:1009000004F0D2FCB04604FB08F200205408034671
:100910002902001941F1000106F0FAFC694B196047
:10092000694B4FEA086906460F4618604FEA1828D7
:100930001DB92B2004F0B8FC01254FF47A734FEA5F
:10094000550EA9FB030110EB0E0003FB08114FF03D
:1009500000042A46234641F1000106F0D9FC5B4B16
:10096000474D19605A4B0236186047F10007B3082B
:1009700043EA8773013B2B63564B5748574E4FF062
:100980000052C3F880211A6001236B602C4B4FF09A
:100990000709C3F8849003F0BBF9C308010B804634
:1009A000D80536184FF000074F414D4A03933046A3
:1009B0000023394606F0ACFC4A4B4B4E18604EF60D
:1009C000602003F0C7F84042F0623D4804F0E8FAC6
:1009D000039B024657089803C0194FEA58514FF03D
:1009E000000341F1000106F093FC494670603F4866
:1009F0003F4E03F0C5F83F4BC5F80031A3F5200387
:100A0000C5F81031049A3C4D4FF400232C7013604C
:100A10003A4BD3F8C82042F06C018A4240F054812E
:100A2000074AD268D10700F14F81D3F81031C3F3E0
:100A30000823002B40F0488164E000BFD0FF0FE0A6
:100A400000400840C0E653517A27000F00300840AC
:100A5000944008460C400846806D630324300844E7
:100A6000F840084600790000E81F0021C01F00215F
:100A70005C1F0021EC1F00213F003700F81E002101
:100A8000005008407C000844550B0020300900202D
:100A900035180000301008401E0900201C090020F5
:100AA000140800209010084040000844001008403E
:100AB0000C40084400040600C8400E460011010026
:100AC00040420F005C1A0020581A00205C0D0020E4
:100AD000580D002000E100E060510700B2E60E0072
:100AE00065CD1D00141400208C1F0021AC070020D0
:100AF000186008440300C0000C14002000400E40A1
:100B000020A10700EFF3108072B6B54B9F69A3F5E3
:100B1000C0434FF06052D3F884103260B14A4FF0B6
:100B2000006414602422C3F88420AF4A04241460B3
:100B30004FF480429A664FF480525A621A6E520401
:100B4000FCD51A68D405F9D54FF480429A66DFF8CF
:100B500004E3D3F888401E944FF0040CCEF800C094
:100B6000C3F884109E498F619A6603F03DFEA4B2DB
:100B70004FF605034FF60402944208BF1C469B4BF8
:100B80009C6501232B709A4B186803F005F94822E5
:100B90000021984805F0CAFF974B984A602106202B
:100BA000596410600022C3F88420954B4FF08052A6
:100BB0001A604FF4001333604FF060533360914B71
:100BC00040F6FF725A625A6503F1C063A3F6BC7324
:100BD000402219608C4B1A60DAF88C0003F026FB77
:100BE00004234FF080521946104604F02DFF874B26
:100BF000874E884F336076A1D1E9000103F10C04E0
:100C0000C3E9150174A3D3E900234FF0FF316FF05E
:100C1000010004F019FF204601F096FC022003F0C9
:100C200005FB3068642394224FF00008A0F844309C
:100C3000A0F84A309623A0F84C20A0F84830A0F83D
:100C40004080A0F842800721343002F099FF3468D8
:100C50007149012504F10C0001F0A6FA04F13400F9
:100C600084F83850022102F08BFF6C4B4FF0006289
:100C70001A60237B6A4A2B4323731368346823F07A
:100C80000F0343F003031360414604F10C0001F02D
:100C900003FC03F0BBF9C7F80080624BDBF82400CB
:100CA000D3F88831DFF8B081C043284003F48003D3
:100CB000184304F1340400F08583032388F80030DE
:100CC000594BFF221A70A8E3142004F0EDFA58E7FC
:100CD000012B5649564D574C0FD13A68024042F00D
:100CE000030207233A600B6006232B60524B2360FC
:100CF000524B4FF440421A6087E33B68034043F095
:100D0000804343F004033B6007230B6005232B6003
:100D1000C023236081224A4BEDE7FF218AE320684C
:100D2000B060A288A379BB71BA8093E3454B09995F
:100D300018681B791E9089F8043049B39DF81E206D
:100D40001B2A28BF1B22531D8DF81D300DF17D007D
:100D5000531C8DF87B3006F072FC16A801F0A8FC3D
:100D6000394A9DF81D30128829F8032026A99A1CBB
:100D700051FA82F2002102F8201C1698BDF85C108E
:100D800042F81F0C093322F81B1C8DF81D30AAE312
:100D90000E238DF81D300A238DF87B302B4B1A68FB
:100DA000CDF87D205A681B7ACDF881208DF88530EA
:100DB000D3E7274B1A889B788DF85A300323ADF878
:100DC00058208DF81C30A1E309212048D2E300BF50
:100DD000081B880200000000081B881204000000A5
:100DE000006008401860084600400846005008406F
:100DF000180000200C1F002100000840700008446B
:100E000094400844001008408840084478070020B7
:100E10000C1B0020E81F00214C9100009440084664
:100E20005C1F002100400E401C0000200C410844C3
:100E30000C41084608410844C100400004410844F0
:100E400008410846D88A0000E88A0000DE8A0000CF
:100E5000EB8A0000004008440E1400203B79B84A99
:100E6000B8494FF4804001F085FC3B794FF0000A0F
:100E700008F1FF32082BA4F802A092B200F0928190
:100E80002DD8042BB04D59D0062B00F09080022BAA
:100E90002CD1022A40F05C82B6F80530AB4AAC494E
:100EA0004FF4804001F066FCB6F80580A94AA849D5
:100EB000B8F5007F28BF4FF4007843464FF48040D8
:100EC00001F058FC00220323114602202B70A5F8E4
:100ED000018004F0C1FCA4F8008000F098BC102B45
:100EE00000F0C68105D80A2B00F0BE804FF006093D
:100EF00090E1122B00F0F480522BF7D1A8F10308F7
:100F00001FFA88F5B6F80530934A00954FF48040F3
:100F1000924901F02FFCB6F8050002F0D5FC00283C
:100F200000F07584037B5B0740F171842A468C498D
:100F3000B6F8050004F0CDFC00F069BC042A40F0CE
:100F40000782B7F80720B7F80530864900924FF4BA
:100F50008040854A01F00EFCB7F805901FFA89F32E
:100F60001846049302F0B0FCC846049B10B9A4F8DC
:100F700002904BE090F80890D0F804B07B4A0093C0
:100F8000B9F1020F0CBF4FF0010A4FF0020A5346AD
:100F900077494FF4804001F0EDFB05232B7085F875
:100FA00001A0A5F802804A465946032095E0A8F121
:100FB00007081FFA88F8B7F80530CDF80480B7F8AD
:100FC000072000926B496C4ADFF8D4B14FF480409F
:100FD00001F0D0FB4FF00203B7F80500B7F8071097
:100FE0008DF84C300BF10203CDF804800093CDF85E
:100FF00048B012AB0CCB02F08FFC4FF6FF7948459E
:10100000804606D17B68C3F30F2363804FF00A0943
:1010100000E14FF002038DF83C30CDF804A0CDF88C
:1010200000A0CDF838B001300EAB0CCB494680B2F1
:1010300002F072FC484582461CBF00F1FF3A1FFADD
:101040008AFA4346CDF800A04C4A4D494FF48040FF
:1010500001F090FB07232B70A5F80180A5F803A0F1
:1010600000221146042038E0022A40F071814FF43A
:101070008040B6F80530434A434901F07BFBB6F89F
:10108000050002F021FC30B94FF001097368C3F389
:101090000F236380BAE0037B990740F1BC83238868
:1010A00026AA013B22F86C3D12A9B6F8050004F00F
:1010B000EBFB81460028E9D1BDF82C50334A344976
:1010C000DDF848802B464FF4804001F053FB1E4B67
:1010D0000B221A7041462A46484604F0BDFB96E3AF
:1010E000A8F103081FFA88F5B7F80530294A0095DA
:1010F0004FF48040194901F03DFBB7F8050002F0BC
:10110000E3FB002800F08A83037B1A0740F18D83FC
:101110002A461349B6F8050004F0DBFB8146002897
:1011200040F07E831C4A1D494FF4804001F022FBB1
:10113000054B13221A7049464A464846CDE700BF80
:101140008A7700006F8B0000601A00200177000092
:10115000858C0000B476000058770000038C0000F6
:10116000D7000020918C0000A5770000CB7600000E
:10117000828B0000A68B0000B8770000E6760000A6
:10118000CF8B000020770000AF8C000010770000AC
:10119000F48B00004F77000028770000218C0000BE
:1011A000D9000020A8F105081FFA88F8B8F1020F4D
:1011B00002D0B8F1100F2DD1B6F80720B6F80530DF
:1011C000704900924FF480406F4A01F0D3FA6F4BA0
:1011D00012938DF84C800023B6F80710B6F805007E
:1011E0000193009312AB0CCB02F096FB4FF6FF730A
:1011F0009842054623D0238826AA043B22F8763D50
:101200000BA904F041FB8146D8B16580B9F1000F0C
:1012100000F0FD8296F8048065885D4A5D4943468A
:101220008DE820024FF4804001F0A4FA5A4B0122CD
:101230001A7083F801805D8083F8049010E773686A
:10124000E1E6BDF82280554A5549CDF800802B468D
:101250004FF48040DDF82C9001F08CFA4E4B0922BF
:101260001A7008F102025A705D80424649469CE6B7
:10127000A8F105081FFA88F8B8F1020F02D0B8F1FA
:10128000100FC7D1B6F80720B6F805303D490092D7
:101290004FF48040434ADFF8F4B05FFA88F54FF02E
:1012A000000901F067FAB6F80500B6F80710CDF8A6
:1012B00048B08DF84C50CDF80490CDF8009012ABAA
:1012C0000CCB02F029FB4FF6FF7A50458046B6D092
:1012D0008DF84450CDF80490CDF80090CDF840B092
:1012E00008F1010010AB0CCB514680B202F014FBA8
:1012F000238826AA5045A3F10603054622F8763D29
:1013000018BF00F1FF350BA9404618BFADB204F07D
:10131000BBFA814610B1A4F8028077E7BDF82290AD
:10132000214A2249DDF82CA043464FF480408DE845
:10133000200201F01FFA184B11221A7009F1040261
:101340005A70A3F802809D804A4651460520C4E6A3
:101350004FF004095EE71022002112A805F0E6FB19
:10136000134B129312A902234846139304F0D2FDA3
:101370004DE202F04BFE0F4C0F4B10481049FFF7A7
:10138000DCB900BF918C00007C770000D900002000
:10139000A3760000518C0000601A0020397700000D
:1013A000038C00009277000061770000278C00001A
:1013B000100000200000FFFF0880E00F0000084040
:1013C000B881E00FC14B1A689B88A8F80430C8F8B0
:1013D000002003F0ABFE21460A2003F029FE98F816
:1013E0000030BB48022B7FF473AC3968B94B014025
:1013F0004FF4EE4241F0804139601A6003F100730E
:101400004FF48A421A6043F8045C002003F08EFE19
:10141000B14B03221A6003F0D9FDB04C3068B4F927
:10142000002047F6FF718A423FF477AC002101F0BB
:10143000D3F801463068AA4F0C3001F02DF86468EB
:10144000002C7FF46CAC384601F032F9B37B64F3C6
:101450000003B373A34BA44DDFF82883A34C2022D1
:1014600083F80123002183F80423284683F8062308
:1014700083F8072383F8052383F8082383F81D23C3
:10148000602205F053FB9A489A4B4FF4907285E81E
:101490000900B2822523984A6B72012313702B72C4
:1014A0000023C8F800300DF11E021B2309A93620C5
:1014B000238004F05FFD0DF11D020AA9392004F01C
:1014C00059FD0DF17809CDF80C8000283FF42EACC1
:1014D0009DF81D200A99202A28BF202248468DF811
:1014E0001D2006F0ACF807AA0AA93A2004F042FD34
:1014F00000283FF45EAC9DF81C200A99202A28BFE2
:10150000202216A88DF81C2006F099F8DFF87882C2
:101510007A4800234FF0020AC8F80030C8F80430B7
:10152000774B036080F804A002F0E4FD7548764B29
:10153000036080F804A01023037204F05BFA734880
:10154000734B0360734B80F804A0C36080F808A05D
:10155000A0F810A08DE80804534690E80600143067
:1015600004F024FA0998CDF8108000283FF42CAC40
:101570009DF81E1002F0CEFD6748684B03604FF0E7
:10158000100880F8048002F0B5FD6548654A664B96
:1015900003604FF6FE7A0823C26080F80480A0F84A
:1015A00010A00372059304F025FA6048604A0260B7
:1015B0000C2202725F4AC26080F80480A0F810A07A
:1015C00004F018FA5C485D4A059B02604FF0020B7C
:1015D0005B4A80F80480C260038280F808B004F09F
:1015E00009FA5848584B0360584BC36080F8048090
:1015F0000123038280F808B004F0FCF95448554BED
:101600000360554BC36080F80480A0F810A080F8F8
:1016100008B004F0EFF95148514B0360514BC360DF
:1016200080F80480A0F810A080F808B004F0E2F977
:101630004D4B049A1A604FF6FF729A809DF81D2058
:10164000202A05D8931DAB734946484805F0F7FF9B
:101650009DF81C20202A06D8931D85F8363016A93F
:10166000434805F0ECFF01F051FA2B7BB27B43F0CD
:1016700001032B736B7B02F0010203F0F00362F3B2
:1016800086136B73AB7B0BB90623AB73394BB988ED
:1016900038689980186095F83530042161F30303A8
:1016A00062F3861385F8353095F8363013B9062382
:1016B00085F83630304B3868BA8818609A802F4FDA
:1016C00003F082FB3E462E4A60E000BF448D0000DE
:1016D000E8FFFFBF2441084458410844C8000020E7
:1016E000141B002000E100E09C180020C400002032
:1016F000D6BE898E555555002C1900209C08002017
:10170000EF8A0000E0030020F28A0000400500207C
:10171000F58A0000A0760000BC080020F88A0000CE
:1017200038040020E5350000098B000090040020FB
:101730001A8B0000FD320000300300202B8B0000CC
:10174000CB770000E80400203C8B0000C28C000036
:10175000880300204D8B0000DD320000D8020020FD
:101760005E8B00009D320000B40D0020B1180020F7
:10177000D9180020AB180020D3180020D00000207A
:10178000F41A0020D4020020681A00201378002BDD
:10179000FCD0EFF3108572B600231A460DF121013B
:1017A000234804F02CFE284603F01EF89DF8213053
:1017B00013B1039A00231360039B1A68EFF3108898
:1017C00072B6C2F501739BB23A440DF1210118487B
:1017D00004F015FE0546404603F006F8039B186822
:1017E0002844032818607FF66EAFB7F8008008F130
:1017F00004039842FFF467AF09D8B7F80290B9F133
:10180000040F3FF42BABB9F1060F3FF4A4AD039ADC
:101810000023136057E74FF0020937E44FF0010946
:101820007368C3F30F236380F4E44FF00309F7E711
:10183000FC180020084BD3F8882012F0A00F0AD122
:1018400008229A60054B1B6813F4007F14BF044AFA
:10185000044A02231360704700400840081F00211B
:101860000040084600400844F8B5084D084E094FAE
:1018700004242C60D6F888305B0300D4F8BD3C60AB
:10188000022002F0E7FB2C60F4E700BF8840084626
:1018900000400840884008440A4A53685B0708D162
:1018A000094B5B682BB1094B1B6AC3F30C03013B6B
:1018B0009361074B80221A60064A136823F04003A5
:1018C0001360704700000840541F002100100840BA
:1018D00088400846F81E0021994B2DE9F74F1F6EEE
:1018E000DA6E17409F6603F58053D3F8E060D3F8B3
:1018F000EC201640C3F8E86003F5A043D3F80012CB
:10190000D3F80C2201EA020BC3F808B2A3F5005386
:1019100059691A6A01EA02084FEA18421204DA61A8
:10192000884BD3F80022920006D4D3F80031C3F3D9
:101930004073002B00F0E380EFF3108072B6824B0F
:10194000DA68D96D12F0060F9A6E01EA020929F4DD
:10195000800214BF4FF0010A4FF0000A22F4006227
:1019600019F0040F5A6604D0784A13780133DBB2B9
:10197000137002F039FF002F00F0DB803D0440F1CE
:10198000C180734B7349D3F88830A02003F4E05230
:101990000A600860102041F8880C002A00F0B4802A
:1019A000DC0400F1B480580500F1B4804FF4000469
:1019B000B9074FF000050BD5654B6649D3F8883061
:1019C00003F460420A60002A40F0A78044F48014C7
:1019D00017F4005F0CBF002702275F4B3340002B3A
:1019E00054D016F4206F07D0002004F0FDFF06202D
:1019F00026F4802603F058FC16F0090F09D0544B4A
:101A000020229A60A3F5405301229A62082003F035
:101A10004BFC16F0106F19D04D4B20229A604F4AA4
:101A20000123C2F8B8300192EFF31083009372B62D
:101A3000002002F09FFD009B184602F0D5FE019A9F
:101A40000423C2F8B830092003F02EFC16F4202F2E
:101A500007D0002004F0C8FF072026F4802603F0FA
:101A600023FCF10312D53E4B4FF480321A603B4BFE
:101A7000C3F8E420D3F88020C2F30C023C2A05D836
:101A8000D3F8E030DA0301D503F0F4FB730709D58E
:101A9000344B1A684FF40053002A4DD0324A44F4B4
:101AA00080241360700548BF44F0040416F48026B7
:101AB0006BD02E492E4A0B8812882E481A440433C4
:101AC0009BB2033A0B8002F03C022B4902444B626A
:101AD000937803F00703042B03D11D4841680903E1
:101AE000FCD42649013B0A60062B4BD8DFE813F0F3
:101AF000F400F700F400FA00FD00000100019A462E
:101B0000994638E7002453E74FF4002450E74FF09C
:101B100000744DE74FF400144AE71A0402D544F06C
:101B2000806455E798044CBF44F4800444F080740A
:101B30004EE70024002550E7114A1360B2E700BFCA
:101B40000000084000E100E0005008403709002094
:101B50000040084088400844090A0B09001008406A
:101B6000EC100844B4040243241008441E09002069
:101B70001C090020DC080020601008402809002013
:101B800024100846032003F08FFBBBF1000F1DD08B
:101B90001BF4805F18BF44F400441BF4807F18BF1F
:101BA00044F480341BF4005F18BF44F010041BF4AD
:101BB000007F18BF44F020041BF4806F18BF44F06E
:101BC00040041BF4006F18BF44F08004B8F1000F0C
:101BD0002FD018F0007F18BF47F0080718F0806F6B
:101BE00018BF47F0100718F0006F18BF47F0200724
:101BF00018F4802F18BF45F0040518F4803F18BF73
:101C000044F4006418F4801F18BF44F4804418F4AE
:101C1000001F18BF44F0020418F4002F09D001F08F
:101C200075FF831EDBB2012B01D9072801D144F4D3
:101C30000034B9F1000F00F0878019F4006F15D05F
:101C4000A949AA4ACB78002B55D0013B4FF400603C
:101C5000DBB25066CB704BB9A54B197840F6014307
:101C6000002954D002F1C0626C32136019F0007F79
:101C700004D02B2002F0E0F944F0804419F4E00F86
:101C800006D119F4805F53D0BAF1000F00F0DF8065
:101C900019F4001F04D0292002F0CEF944F00054BA
:101CA00019F4800F35D0934BDFF840A201221A605F
:101CB0004FF48053CAF86430272002F0BDF98E4BF0
:101CC000A0221A60102243F8882C4FF48003CAF82F
:101CD000643044F080542BE044F4005455E744F45D
:101CE000806452E744F400744FE744F480744CE796
:101CF00044F0080449E781490120086080484FF416
:101D0000006141F61F7E5166C0F800E0516613671E
:101D1000ACE719F4801F78D0764B01221A60734B20
:101D20004FF480525A66282002F086F944F000648D
:101D300019F4806F08D06C4A9378002B00F0CC80A7
:101D4000013B937000231F436E4BDFF80092D3E9F1
:101D500000016D4B1A68204001233A40294089F860
:101D6000003000F0FDFD002389F80030EEB1674C33
:101D70002368C3B1D80714D4EFF3108572B6644E4C
:101D80006448378807F03F0101F03C0E022B86447F
:101D900040F022812368002B40F0DA80284602F0D0
:101DA00023FD0023236001F08FFEB8F1000F29D03E
:101DB00018F0007F14D0584BD3F83821D20600F128
:101DC0002081D3F80011D3F80021520821F47F11AB
:101DD00002F4FE120A43C3F800214FF00072DA61E8
:101DE00018F0006F0ED04C4BD3F8383113F0100FB1
:101DF0000CBF4A4A4A4A4FF400131360494B4FF054
:101E000000621A6003B0BDE8F08F19F4805F8FD0D4
:101E1000384BDFF8D8A04FF0010BC3F800B04FF4F7
:101E20008053CAF86430222002F006F94FF4802370
:101E3000CAF80430DAF85C3013F4A00F7FF478AFFE
:101E40002A2002F0F9F8384BC3F828B041E7264AB7
:101E5000137963B1013BDBB2137123B1002200237C
:101E600014431D4364E7314B314A1A60F6E7214BB6
:101E700001221A601D4B4FF4805159661F490A60B8
:101E80004FF400625A662B4ADA66EFF3108B72B693
:101E9000294B1B780BB101F041FE234B1B6D0093C6
:101EA00001F034FE032803D0009BC3F30C032BB1D5
:101EB000224B1A78224B4FF0010A1A70584602F052
:101EC00093FCBAF1000FC9D11E4B83F800A001F0BA
:101ED000BDFD4FF48052C2E71B4A01231360034A41
:101EE0004FF4806151662EE7200900200050084021
:101EF00034090020405108448840084430510844C7
:101F00006C500844781A0020701A0020280900201C
:101F10001C090020DC080020004008400041084463
:101F20001841084420400844001008406C500846FE
:101F30000000010D000001013509002036090020D4
:101F40002D0900202C09002020510844241B0020CA
:101F500023F00103226822F001029A4240D10022BC
:101F600022601A886FEA42426FEA52429E451A8006
:101F700029D12A49088800EB0709294FA7F1400A0F
:101F8000043880B21A1DA9EB000EBA4228BF52468F
:101F900004281FFA8EFE2DD89A781B8808802149C4
:101FA000C3F30C03CB6302F007021F4B0EF07F015B
:101FB000042A3180D960586205D11C4B1B6803B1DB
:101FC000984701F0AFFF174BD3F8E030D9037FF506
:101FD000E5AE03F04FF9E1E6012B08BF7346B9E720
:101FE0005A1A0E490988121A48BF403204399142E0
:101FF000B7DCD3E6B2F900C0BCF1000FCCDA13466F
:10200000BEE7D3F81811D3F81821520821F47F1134
:1020100002F4FE120A43C3F81821DEE61E0900206E
:102020001C09002000100840601008403009002002
:102030002DE9F04780460E461546EFF3108772B63D
:1020400019B3FFF711FC4A490A46D1F8703103F081
:102050000F03032B01D0092B06D1D2F88C30DB0300
:10206000F3D4536F0C2BF0D9424B01221A6003F1C9
:102070007E437C3304221A6001F048FD002873D1AE
:102080003D4A136823F0F00313603C4AA023136019
:102090003B4BD3F8301111F0010F92460AD0394969
:1020A00001220A604FF40061596637490A604FF413
:1020B00080525A66324C354BE36600232367FFF7A4
:1020C000D3FB334ADFF8A890136843F04003136052
:1020D000304BFF221A604FF48073C9F80830042394
:1020E000CAF80030B8F1000F10D001F017FD22201F
:1020F00001F0A2FF4FF4802363602023C9F8083069
:10210000214B01221A604FF4805363663EB3284688
:1021100004F06AFC204B01221A6005B31F4BDA6EF3
:102120009A6603F580431A6ADA6103F50053D3F81F
:102130000C22C3F80822A3F54053DA6F9A67A3F57F
:102140000053D3F8EC20C3F8E82003F5C043DA6B62
:102150009A63A3F50053124A5A6601F0A7FC384669
:10216000BDE8F04702F040BB01F0DCFE84E700BFB1
:10217000004008400C4008465C1F0021884008448D
:10218000005008403051084440510844000001010B
:10219000F81E0021004008440C400844000008409C
:1021A0005000F00270477047F8B506460D4611B969
:1021B0001F2003F079F800233562736215B91F20E0
:1021C00003F072F8E86800214FF6FF721827CBB2CF
:1021D000834206D314462146304603F097F8204642
:1021E000F8BDAC6807FB0343DC89944202D2002CA3
:1021F000F1D022460131EAE72DE9F74F934DDFF8A0
:102200007CA2EB680193924BD3F8A080D3F8A47022
:10221000044600F128064FF0010919B10A68501C64
:1022200040F0838002F0D2FE8A4B8B4A9B69127881
:10223000C3F382139A4204D0884B3146186802F0E7
:10224000F7FE874801F064FD814601F07BFE4FEA0E
:10225000D909844A430803EBC913B3FBF0F07C4B64
:102260001060596811F4801F104640F09F807E4A2C
:102270001268D3F8A810C2F3810211F4806302F14E
:102280000102C9B218BFD300FF2906D07049D1F8A6
:10229000AC10490501D503EBC20383606D4BD3F845
:1022A000842012F4E05F04BF2022C3F81022684BA0
:1022B000ED68D3F8A010D3F8A42088450AD06B4865
:1022C0000378C1F3802E6EF30003C1F3C02161F3E4
:1022D0004103037097420AD064490B78C2F380200F
:1022E00060F38203C2F3C02262F3C3030B70019B4D
:1022F000AB4200F0A0805E495E4F25B12B6813B160
:10230000AB68002B54D1EFF3108072B60B6823F04A
:1023100007030B6002F068FA00233B607B60002D2E
:1023200075D12B4619461A4679E0C2F3026EC2F304
:1023300007405AF82EE093B2012843EA0E0311D960
:10234000820001EB020E08465B1A03EB000C50F80A
:1023500004BFCCF800B08645F7D1043201EB020B84
:1023600059465AE7120F01F1080B4868072AF7D8B7
:10237000DFE802F0070409110C0F1417C04303F142
:1023800080631860ECE71A685040FAE701F062FEDB
:10239000E6E709FA00F003F1C063F2E709FA00F09A
:1023A000EDE71A6830EA0202FBD1D9E7002374E7AF
:1023B000314A0720106093F804E087F800E058796C
:1023C00090FAA0F2B2FA82F2202A08BF4FF0FF3250
:1023D0005FFA82FC20FA0CF002F00F0242EA0012CF
:1023E0007A709A79BA70DA79FA701B68184A7B6049
:1023F0000EF101039361EFF3108072B60A6882F068
:10240000070303F0070353400B6002F0EDF92B685C
:10241000002B87D02A69B2B191681368D289A36270
:1024200043F2C8239A4228BF1A462163E286072155
:10243000304601F0A5FB2378002043F0020323700F
:1024400003B0BDE8F08F13466CE700BFEC1F00211E
:10245000000008400060084028000020541A0020B6
:10246000605107008C1F002100200840801A0020C6
:10247000F81E0021541F0021040008444C8D000068
:1024800008B590F86030032B04D0084602F04EFEE9
:10249000002008BD022008BD70B590F86030032B05
:1024A00005460E4611D02971416A39B102F014FF78
:1024B00030B968626988284602F028FF002070BDA4
:1024C00031462846FFF7DCFFF8E7022070BD000028
:1024D0001B4B5B6803F07063B3F1E06F0AD011D857
:1024E000B3F1407F28D007D8B3F1807F02D0B3F199
:1024F000007F11D102207047B3F1806FFAD0B3F1A1
:10250000A06FF6E7B3F1206F14D00DD8B3F1006FD0
:1025100010D0B3F1106F11D00A4BDB6813F0060F27
:1025200014BF042001207047B3F1306F02D0B3F123
:10253000406FF1D104207047032070470520704799
:10254000004008400050084003789A0770B50446E0
:102550003DD5426A002A3AD06FF3410303705369B4
:102560001A68531C09D01A49D1F83C311B0C1B04C2
:1025700092B21343C1F83C3170BDD0E9122300225E
:1025800003F00403134304D1037843F00203037000
:1025900070BDEFF3108072B62569E36805F48035ED
:1025A0002B43E36002F020F9002275B90023D4E93F
:1025B000120102400B4052EA030108D00549A4F180
:1025C0000C000968BDE8704008470423EFE770BDC0
:1025D00000400840140000202D4B1B6870B52BB143
:1025E0002C4C246814B12C4D2D682DB92B4B2A226C
:1025F0001A602B4B1860FEE7002942D0012934D025
:10260000B4F900108A4203DC26499142B8BF114652
:102610002822A1F1C80393FBF2F3234A64681578DA
:102620005B421BB29D42DCBF05F1FF331BB24FF48E
:102630007A7604EBC3020133508852681BB211FB57
:10264000002020EAE0709D4200F5FA70B0FBF6F23F
:1026500019DC03F10053013B34F83300904228BFEA
:102660001046002808BF012009E0062335F91310A1
:10267000914218B202DD013BF8D118460130C0B2D8
:1026800070BD1C46BCE734F833008242D1D9E0E784
:10269000480B0020500B00204C0B00202000002095
:1026A00024000020C880FFFF38090020FEE700005A
:1026B000084B196C10B500225C6C0A43110A0270B9
:1026C000120C8270220AC270230E220C4170027119
:1026D000437110BDB081E00F244BD3F8F82170B4E2
:1026E00010EA020419D1D3F8FC5103F5FC72521B15
:1026F0009210022A13D0032A2ED0012A1DD01C4C7E
:10270000D3F8002264682C6005F10C046860C3F8FB
:10271000FC41A96013680C33136070BC7047144C03
:10272000D3F8002264682C601E1D686004241960C0
:10273000C3F8FC61146070BC70470D4AD3F80042C6
:1027400052682A601A46082542F8080B5960C3F8F7
:10275000FC21256070BC7047054ED3F800227668D6
:102760002E606860A960C3F8FC31E3E744090020EB
:10277000001000E00EB400B501466420FFF7ACFF86
:102780005DF804EB03B070472DE9F84398464369C0
:10279000012B06460D46174600F0BC80FFF798FE59
:1027A000012829D1BB897C68BF68ED1AADB23F2DE5
:1027B0002CD85B4B1A689442994607D1594B1B6839
:1027C0009F4203D1B8F1000F00F08F8001F09AFB17
:1027D000804601F097FB48B1534BB3FBF0F39C42AA
:1027E00004D3524BB3FBF0F0844216D90E2002F012
:1027F0005BFD0220BDE8F883002211460120FFF7AF
:1028000017FCFFF765FE0128FBD1CBE7AA09BB0146
:1028100002FB034405F03F05CBE7B8F1010F4FF091
:1028200010037AD0424A1360B8F1000FE1D0C9F822
:10283000004008FB04F43F4ADFF810910023E00455
:10284000610B04F065FDC9F82C00D9F83010394847
:10285000C1F313014FEAC8420023A1FB000104F0B9
:1028600057FD354B334A18602E4BF8041F60A0FB10
:1028700008017B0B08FB0311002304F049FD2F4FD7
:10288000C9F83C003B7823B9D9F8503003F03F0336
:102890003B702B4BD3F894305A061BD5294BB4FB15
:1028A000F3F340F24D5203FB03F14A434CF20C6147
:1028B00001FB132303F5C91303F555631BB92B2043
:1028C00002F0F2FC012339781F4A4A43B2FBF3F3CA
:1028D0001E4A136501F094FA194BD3F83831DB0620
:1028E00054BF1B481B4801F057FA3046FFF72CFE37
:1028F00001F00CF90428FBD00A28F9D010B10F2000
:1029000002F0D2FC114B9D6303F5805380229A6044
:1029100001F076FA0020BDE8F8830F4A136086E7DD
:10292000081400200014002000371789007DDAAC5D
:102930003841084600F0490204140020540B0020DE
:102940000040084000366E01809698000030084034
:10295000C0CF6A00E067350038410844000000003D
:102960005D4B2DE9F14F90461F6859A3D3E9002331
:1029700002400B40134304460D4679D0574B00F0FC
:102980008052D3F81C310023134309D0544B1B68E9
:1029900003F07F43B3F1007F02BF524B02221A6063
:1029A00004F001020023134348D000220023012039
:1029B000002103F049F8DFF850A1EFF3108B72B655
:1029C00001F0A4F8484B9A689209C2F309039205F2
:1029D00048BF43EA0A0306460FFA83F901F096F866
:1029E0000238C0B2012865D8023EF6B2012E8CBF73
:1029F00000260126584601F0F7FE19F5007F5BD14D
:102A0000002EDAD100221146A7F812900120FFF71C
:102A10000FFB364B4FF400121A60354B1A683AB16F
:102A200034496FF0FF00086001F1007102400A6054
:102A300000221A603B7B43F008033B73002205F041
:102A40000403134314D0A24625F0040BEFF31080C7
:102A500072B6FD69BB6905F001052B43BB6101F04E
:102A6000C3FE00246DBB002544EA0A0445EA0B05B9
:102A7000D7E9152314401D4054EA05030ED01E4B20
:102A80002246196838462B4604F00804002588477A
:102A900054EA05031EBF194B00221A6018F0010FFB
:102AA00011D0174A13680020106063B101B0BDE86F
:102AB000F04F184700269DE7124A002E08BF9146A6
:102AC000A0E70425D0E701B0BDE8F08FAFF30080A8
:102AD0000100181004000000481A002000500840AF
:102AE000081F002100400846007008401860084494
:102AF0003C0900201870084414000020181400201D
:102B00004009002000FEFFFF00FCFFFF08B5002188
:102B10004FF48570FFF7E0FD064B00221A61012299
:102B200011461046FFF784FAFFF7D2FC0128FBD1CB
:102B300008BD00BF0C1B0020012838B514BF0125BB
:102B4000022528460CBF04242C4602F0BBFB70B1C2
:102B5000012002F0B7FB50B1FFF7BAFC420706D4E0
:102B60000D4B188840F0807040EA05401860204600
:102B700002F0A8FB78B1012002F0A4FB58B1FFF7E6
:102B8000A7FC830707D4044A13681B0C1B0443F4F7
:102B900080732343136038BD081F00212DE9F04FD7
:102BA000C54F8BB011464FF4867099469046FFF79B
:102BB00093FD3B693E463BB941464FF48370FFF7B6
:102BC0008BFD0BB0BDE8F08FB9F1000F08BFB8F175
:102BD000080F40F0938100214FF48170FFF77CFDD6
:102BE000EFF3108B72B6DFF80CC3B44BBCF80000E7
:102BF000B34E1F68CDF810C000F03F0202F03C0158
:102C000031440593DFF8F0A26FBBBAF800300344FB
:102C1000033B03F03C039F19BA1A921BBAF8000059
:102C200048BF4032904221DC584601F0DDFDA24B06
:102C300006945A680399527A8DF81C209DF8042056
:102C40008DF81D209DF81E201B69ADF8205061F302
:102C500000028DF81E20029A099206A902209847C8
:102C600001F032FBADE727F00107D5E7B9429549FE
:102C700040F0FA80C86B1FFA80F9D1F88000C0F3E9
:102C80000C00824280F2FA8038880104CCD497F894
:102C9000028008F00708A0EB0905B8F1050FC5F39D
:102CA000090508D901F094F92D1A2DB2002D02DA88
:102CB000042002F0F9FA844AC9F3080902EB090377
:102CC0005846ADB2029301F08FFD002FAFD018F03F
:102CD000070F06D0EFF3108072B67C4A176001F040
:102CE00083FD022F1FD8EFF3108072B6049B198862
:102CF00001F03F020BD1059B1F68002F40F0D080F0
:102D0000BAF800300B44033B03F03C03F718BA1A3F
:102D1000961BBAF8002048BF4036B24285DD01F06C
:102D200063FD002F83D0B7F8008018F4004F7FF4C4
:102D30007EAFBB7803F00703052B7FF678AFDA1F71
:102D400053425341039301F043F9C6B2002E00F001
:102D5000AD805C4B1B6B03F007030127063307FABA
:102D600003F3A8F10608591E1FFA88F801EA0801C2
:102D70005F1A574B5B68B74243F00058414480F0FC
:102D800092803A4606A804F05AFC06ABF21B414674
:102D9000D81904F054FC9DF9183001934D4BDDF81F
:102DA0001A801E684C4BDA6DC2F301114FEA1249CA
:102DB00001FB099242F210718A423FF638AFDB699B
:102DC00003F01F0909F10109914401F0BBF8434BDD
:102DD0001424B0FBF4F403FB09444FF00A09B0FBE0
:102DE000F9F0B4FBF0F46442EFF3108072B63C4BA0
:102DF0003C4A9F6992F800903B4A12685FFA89F951
:102E00009A4622B109F101099F695FFA89F901F037
:102E1000EBFCB84588BF09F1FF39DAF83010334FC1
:102E200088BF5FFA89F9013109F00309424600239E
:102E3000E9FB01232E493F680968A1FB028918F1CB
:102E4000004801FB039949F10009736B4846A7FB51
:102E5000028910EB080003F5FA734FF47A78B3FB9C
:102E6000F8F3E41A0444E2E6381FB04238BF07F131
:102E70003C00B0F80090C9F30C09FEE68D6BA5EBA1
:102E80000905C5F3090500F041FE35B9032814BF53
:102E90004FF000084FF008080DE74FF008080AE768
:102EA00027F0010733E7324606A872E76FF07F0389
:102EB00001933446BBE600BF0C1B0020280900200C
:102EC000DC08002000100840550B002018140020DA
:102ED00030100840481A002000600840A086010019
:102EE0000050084037090020880B0A435C0D002081
:102EF000580D00201C0900201E090020B9F1000F08
:102F000008BFB8F5002F09D1002140F20110FFF7EA
:102F1000E3FB3B6900210120984752E608F4C052C8
:102F20000023134309D04FF480714FF48170FFF7F1
:102F3000D3FB3B6900210320EEE708F44072002335
:102F4000134308D001214FF48170FFF7C5FB3369AB
:102F50000021FF20E0E708F020720023134319BF8F
:102F6000012140F2011041464FF48370EDE700BFAC
:102F700038B5B1F5007F0E4C28BF4FF40071032225
:102F800022600D466060EFF3108072B6D4F8E02046
:102F9000530758BF04234FF00001E160A56058BFFC
:102FA000C4F8E83001F020FC0DB10223A36238BD63
:102FB0000010084002282DE9F3410D461ED002D82A
:102FC000012805D0FEE7032851D0FF284FD0F9E7AC
:102FD0004F4C237B980707D5FFF798FD01F0F4FECF
:102FE000237B6FF341032373237B990701D4DA0713
:102FF0001ED402B0BDE8F04101F0E6BE8B79CC688A
:10300000DB0734D5227802F00F07032F13D0052FEA
:103010002DD140498B7B03F00103B3EBD21F04F1A8
:10302000080005D10622083104F0FAFA804608B3F8
:1030300002B0BDE8F08137498B7B03F00103B3EBAD
:10304000D21F04F10800F3D10622083104F0E8FA97
:103050000028EDD12E4C94F8361004F135000231E1
:10306000FFF786FF237B43F002032373E0E7FFF7BC
:103070004DFDBEE7FFF74AFD2E68274D41465C2215
:10308000284603F053FDAB7E2F8343F02003AB763D
:10309000627E237E43EA0223AB84627F237F43EA7E
:1030A0000223EB8494F82330C3F3040385F84F30F4
:1030B00094F82330C3F3421385F8503004F11E0016
:1030C0001B232B8501F050FED4F80E30E27CEB6020
:1030D000A37C2E6043EA0223227D607D43EA024303
:1030E0002B61012795F84F30AB722F75E18A394477
:1030F00001F026FE03F01AFAEA8CAB8C0749009225
:103100004FF40060064AFFF735FB064B1F708FE750
:103110009C1800200C1B0020981A0020618D0000D4
:10312000548D0000F41A00202DE9F0474E4B4F4C0F
:10313000DFF860914E4D0E464E491B1B17460B445F
:10314000D9F8002023F4FF63801A23F00703984284
:103150002860C8466FD33A44141802F003FFA0F564
:103160008050844267D2D9F800003C18B4F5806FD3
:1031700003D98222404B1A706BE0DFF814A131466C
:103180003E4E3A46504404F05AFAC9F80040D6F888
:103190000090B9F1000F1DD1B4F58E7F59D3384A94
:1031A0000AF586730AF58E7A53F8041B42F8041B5D
:1031B0005345F9D1324802F067FF08B98422D9E7B4
:1031C0001022FF212F4803F0B1FC2B682E4A03F593
:1031D0008673136028682D4B04F003070444E41B36
:1031E0001C40B9F1000F09D11840C0F5006121441D
:1031F00002F0BAFF346040B18522BBE7A14504D29A
:10320000A4EB090109F50060F2E7D8F80020204995
:103210002868D21B02F0C0FFD8F800202B681D4997
:10322000D21B044613441A482B6003F02FF8002CDD
:10323000E2D1BDE8F087184B5B68B3F1827F0E4B9B
:1032400010D21A78314637440020B94203D1002801
:1032500091D1BDE8F08711F8014BFF2C1CBF012074
:103260008322F2E7832286E7A800002010000020D6
:10327000C80D0020079E0000C50D0020F813002097
:10328000E00F002000110020F00F002000F8FFFFE9
:10329000F40F0020F4130020A80D002070B50E4696
:1032A000B0B902F011FF044602F00EFF60B1094D03
:1032B00004F5867304F5A274186859682A4603C297
:1032C0000833A3421546F7D1034B33600423B38080
:1032D000002070BD600D0020800D002010B50C4650
:1032E00030B9044802F0A6FF034B23600423A380F7
:1032F000002010BD9C0D0020A00D00202DE9F04FF6
:1033000001288BB040F02E818A88002A00F02C81A1
:10331000A54D95F800B0BBF1000F00F02781A34B3D
:103320001C7898465CB9A248067882463EB9A14E00
:1033300030681718B7F5806F05D982241C702046B5
:103340000BB0BDE8F08FDFF88C920968484404F0B8
:1033500076F9BBF1020F376045D0032FEFD9964FB6
:10336000384602F067FF3B78D9F80020012B934BD9
:103370002DD19A422DD1BB68DB0358D502232B7087
:1033800002F048FF8E4B1A68A2F17E63A3F58433E6
:10339000B3F5104FC0F0EC8003988A4B8A4A18604E
:1033A00020F4FF6323F007034FF40061136002F081
:1033B000DBFE38B902F088FE90B14FF4006102F0F4
:1033C000D3FE68B1852388F800301C46B7E79A42DF
:1033D0002DD0842388F8003098F80030002BF2D1EB
:1033E0002B78022BABD1794B794F1A7812F0F70F6B
:1033F000994640F09280734B35681B6805F0030BCB
:103400001D443B681D44704B0193A5EB0B0525F44F
:10341000FF65186825F0070585420BD9291A00F5C4
:10342000006002F0A1FE019B18B1852497E086237D
:10343000D0E71D6031683868A1EB0B0101F03AF864
:1034400032683B685B49A2EB0B02054613446148B6
:103450003B6002F01BFF002DE7D199F80030002BF4
:103460007FF46DAF3B687F2B7FF769AF02A903A89C
:1034700000F0F6FF10B9039B89F8003099F800308E
:1034800013F0F70F3FF45BAF4D4D3B682968A1F196
:103490007E62A2F58432B2F5104FC6D2096BA1F15B
:1034A0007E62A2F58432B2F5104FBED2D1F80C90F4
:1034B000484A00210846C8470028B6D13B68336017
:1034C000414B454F1860454B7B602A68A2F17E63F3
:1034D000A3F58433B3F5104FA7D2936A40484FF455
:1034E000007198470028A0D129683368A1F17E6255
:1034F000A2F58432B2F5104F4FD340F20225326864
:103500002C49344802F0C2FE40F203239D421CD0F5
:1035100040F201239D4221D111E73A6833681A44F1
:103520003A60274A1168A1F17E62A2F58432B2F5B1
:10353000104F2BD340F2022532681E49254802F075
:10354000A5FE40F203239D4203D101238AF80030F7
:10355000F5E640F201239D423FF47FAF802488F8D6
:103560000040ECE60024EAE60D24E8E68124E6E6E5
:10357000126BA2F17E63A3F58433B3F5104FBFF451
:103580000BAF936803A90020984705E7CD6A114A5D
:1035900011491348A8470546CEE7CD6A0D4A1048A1
:1035A0003946A8470546AAE7C60D0020C50D0020EC
:1035B000C40D0020C00D0020A80D0020EB17A603AD
:1035C0002808E10FFC130020F8130020980D0020BC
:1035D000CC0D00207A140020D00D002029310000ED
:1035E000E00D002001282DE9F34740F013818B887E
:1035F000012B40F011810B681B7813BB984A994C42
:103600001360994A1360994A1360994A1360994A62
:103610001360994A1370994A1360994A136022788B
:10362000022A01D102F0E6FD01232370954B00240C
:103630001C70954B1C70954B1C70204602B0BDE869
:10364000F087032B40F0CC80904B864E1C78002CEA
:1036500044D13378002B00F0BD80874B1B78082BBA
:1036600057D17F4A136890465BB9894D2B68A3F107
:103670007E63A3F58433B3F5104FC0F0D18080246E
:103680002CE013F003071ABFC7F10407FFB2274667
:1036900003EB070ABAF5806F00F2A0807D483A4636
:1036A0001844FF2103F042FA744B6F4AC8F800A097
:1036B00015681A6815445544DFF8B8A125F4FF656C
:1036C000DAF8000025F00705854299460BD9291A3A
:1036D00000F5006002F048FD18B185240023337026
:1036E000ABE7CAF80050D8F80010D9F8000000F095
:1036F000E1FED9F80030D8F80020594913440546B6
:10370000DF1B6448C9F8007002F0C0FD002DE4D151
:10371000ABE7002B60D05B4B1B78002BAFD0584F32
:103720003B6843B9524B5C491868102202F034FDE3
:103730000028D2D1D2E713F003021CBFC2F1040269
:10374000D2B203EB0209B9F5806F47D85348474D11
:10375000DFF87081FF21184403F0E8F95049514B1C
:10376000514AC7F800905B1A13442A6803EA080319
:10377000934201D98324B1E7914402F0F3FBA0F511
:1037800080508145F6D22B683A68DFF8E890134400
:10379000D9F8000003EA0808804509D9A8EB000120
:1037A00000F5006002F0E0FC002896D1C9F8008026
:1037B0003A683A49286802F0EFFC2B683A683049C9
:1037C0008046134435482B6002F060FDB8F1000FCD
:1037D00083D1A7E7812481E784247FE782247DE7E2
:1037E000042B1BD1314C324A324913234FF4006071
:1037F000FEF7C0FF1323022120466370217001F001
:1038000055F82D4A2D4B128905329A802C4A1A60A0
:1038100062789A71002410E70D240EE706240CE765
:1038200000F06CFE00287FF42AAF2A680190A2F114
:103830007E63A3F58433B3F5104F03D3124B0122FB
:103840001A704BE7126BA2F17E63A3F58433B3F5D4
:10385000104FF3D29369012101A89847EEE700BF0A
:10386000C00D0020C60D0020FC130020C80D002054
:10387000F00F0020F8130020980D0020CC0D002040
:10388000F4130020C40D0020951A0020C50D00205F
:103890002808E10F7A140020E00F0020F40F002028
:1038A00010000020A8000020079E00002D19002015
:1038B0007E8D00008E8D0000981A0020F81A0020DE
:1038C000F95C000000F8FFFF10B508B3114B1A684F
:1038D000918881421CD39988814281BF012112685D
:1038E00099809A6099889A6800242AB904B19A60EC
:1038F0004FF6FF71998004E0884204D10CB19880A2
:103900009A60104610BD013189B201241268ECE7BB
:103910000022F6E7B40D00202DE9F04385B00446FF
:1039200088468DE80C000C9EBDF83470FFF7CCFF84
:103930004FF6FE7905460DB1444505D94FF6FF74A3
:10394000204605B0BDE8F0832B7A9DF804209A420A
:103950001ED10099686803F063FEC8B9002EEFD04D
:103960002B69AA8A53B14A4508D10290ADF80C00E0
:1039700002A9984760B9029BBDF80C2043B1974259
:1039800006D13A461946304603F04AFE0028D7D001
:1039900001342D68A4B2CEE70B4BD3F8942002F08B
:1039A0000702022A04D001D3042A0AD9074800E0FA
:1039B0000748D3F80031C3F304230133B0FBF3F01D
:1039C00070474FF40040F4E700400E40C0EA210188
:1039D00000F0490270470000EFF3108072B6114BFF
:1039E0004FF08052C3F880204FF48072C3F88020DB
:1039F0000222C3F880201022C3F880202022C3F8BE
:103A000080204FF00052C3F880208022C3F880202D
:103A10004022C3F880204FF00042C3F8802000F01D
:103A2000E3BE00BF00E100E010B5046884EA0103D2
:103A300023EA020200F1806314401C6040F8042C69
:103A400000F1C0600A40026010BD0000EFF310807A
:103A500072B6124B1978B9B9114BD3E90023002380
:103A600002F4105213430FD10E4B10221A600C4B6C
:103A7000D3E90023002302F4807213430AD00A4BD7
:103A800020221A6000F0B0BE074B10221A600029F5
:103A9000F5D1ECE72022034BF3E700BF2C0900200F
:103AA000781A00209440084494400846044B0022B1
:103AB0001A70044B197811B11A70FFF7C7BF70471D
:103AC0002D0900202C09002038B50C4B1B789BB128
:103AD0000B4B1C6DC4F30C0474B9FFF7E7FF094BE3
:103AE000094DD3E900012246012300F48050002152
:103AF0002B70FEF735FF2C7038BD00BF2D0900205C
:103B000000100840781A0020241B0020024B58683F
:103B1000C0F30360704700BF0040084008B5EFF3F2
:103B2000108172B6FFF7F2FF032806D1074A136827
:103B300023F0F00343F0E0031360054B01225A62C7
:103B40000846BDE8084000F04FBE00BF5C1F0021E2
:103B500000000840094B1B6830B5C517A3FB0001E6
:103B600010F1807003FB051141F10001400E40EAA5
:103B7000C110803820EAE07030BD00BF141400206E
:103B8000F8B502460C46002800F0A980C8075ED5AB
:103B9000D08A002800F0A4805A4B9B88C01A9368F2
:103BA000C3F17F4303F57F0303F576433C334FF4C2
:103BB0007A7101FB0030FFF7CDFF534DE861508A69
:103BC000002800F090804F4B9B88C01A9368C3F187
:103BD0007F4303F57F0303F576433C334FF47A715B
:103BE00001FB0030FFF7B6FF6861908A00287DD0A6
:103BF000444B9B88C01A9368C3F17F4303F57F034E
:103C000003F576433C334FF47A7101FB00301368BF
:103C1000C01A3E4B1B68C717A3FB000110F1807050
:103C200003FB071141F10001430E43EAC113508B1E
:103C3000803BAB6100285CD0324B9B88C31A4FF4A9
:103C40007A705843A0F6C410FFF784FFA862A1075A
:103C50002AD5D3894FF47A7058435BB1136803F5C2
:103C60001C53103318441379002B46F2A81308BFD5
:103C700000231844FFF76EFF234D6862108B002865
:103C80003AD093684FF47A7101FB00301379A0F5B4
:103C90000350002BA0F1100046F2A81308BF002328
:103CA000C01AFFF757FF2862630718D5138A33B38A
:103CB0004FF47A705843A0F503501038FFF74AFFCD
:103CC000114C9189E0604FF47A70484321B1136838
:103CD00003F51C5310331844FFF73CFF2061F8BD77
:103CE00047F2305067E747F230507BE747F23050F9
:103CF0008FE747F23050A7E747F23050D1E747F25D
:103D00003050DBE70E1400208C1F0021141400201B
:103D100008B500F47813B3F5802F1FD007D8ABB1E6
:103D2000B3F5003F29D0BDE8084002F055BDB3F51A
:103D3000002F1ED0B3F5202F25D0B3F5C02FF2D120
:103D4000FFF72AFE134BD3F810310CE0FFF724FEE7
:103D5000104BD3F80031C3F3042306E0FFF71CFE39
:103D60000C4BD3F80C31C3F308230133B0FBF3F051
:103D700008BDBDE80840FFF70FBEFFF70DFE054B7D
:103D8000D3F80831EFE7FFF707FE024BD3F8143101
:103D9000E1E700BF00400E4038B5124D4FF400225D
:103DA0002A60114A1060114A1268D2B1104B114CAE
:103DB0001B6F00F5F42000F59070B0FBF4F4033CA9
:103DC000E4B203F00703A34202D0204600F07CFCDB
:103DD000094B1B782BB1094B4FF4702224041A6055
:103DE0002C6038BD94400846180000208009C64366
:103DF00000300E4040420F000C1400209440084454
:103E0000F0B5334A334D51681068127A85B001AB72
:103E100003C31A70304B314A9C6B1B6B1168304ADC
:103E200013F4801F2F4B12681B6801FB042404AAA3
:103E300014BFE418E41A2C4BB4FBF3F313442B4ADD
:103E400013F80B6C04ABF440B4FBF2F21A442B6889
:103E500012F80B7C23B92B2001F026FA01232B60EA
:103E60002A68234B43F6FF51196004EB5203B3FB5E
:103E7000F2F3013B1F4A43EA063343EA8723136008
:103E80001D4AB4FBF2F302FB1344642254431B4A61
:103E9000944298BF03F1FF335C08651E5C1C640804
:103EA000072D04F1FF3403D8072C01D81DB914B92C
:103EB000102001F0F9F9124B4FF4EE621A6024025F
:103EC00003F1007344EA05141C6005B0F0BD00BFA7
:103ED000A18D0000180000200030084000140020D0
:103EE000081400200414002040BE4025401B5F132E
:103EF000A4400844A440084600F04902FFEF4902EC
:103F000030400844064B5B6BC3F3C20203F007006A
:103F100002B15043C3F3821303B15843704700BF4B
:103F200000300840064A1146536803F07063B3F14D
:103F3000C06F02D1D36BDB06F6D540238B60704790
:103F400000400840214A936903F03001202910B550
:103F500028D1C3F302441CB1C3F3C422B2FBF4F46E
:103F600013F4C01F18BF64006408032C28BF042486
:103F7000112002F031FC154A116D8BB22BB1C1F347
:103F80000741C0084843B0FBF3F3926902F03001E7
:103F9000202913D0302917D0102900D15B0803FB4A
:103FA00004F010BD936903F4E073402B02D0B3F525
:103FB000807F01D10224DBE70124D9E7C2F3C422C8
:103FC0000132B3FBF2F3EAE79B08E8E70060084040
:103FD0000D4BDB6C13F0200F0CBF00200420D90622
:103FE00048BF02301A0744BF0230C0B2590744BF6D
:103FF0000230C0B29A0744BF0130C0B2DB0744BFF1
:104000000130C0B2704700BF00000840084B0949AA
:1040100008221A6001221A600A6040221A602022D7
:104020001A6010221A6004221A6080221A607047F7
:10403000C8400E46CC400E46044BD3F89430002BBB
:10404000BCBF034BC3F88000704700BF004008406E
:10405000000008402DE9F04F87B0044601F03EFA19
:1040600080462046894600F09BFF214B0D461A6B87
:10407000D968C907044637D5520810460021CDE952
:1040800000010593DDE90023AB4208BFA242CDE960
:10409000024501D2CDE9022301F020FA82468B4687
:1040A000B0EB080061EB0901CB4508BFC2450BD25C
:1040B000059B1A6B0023013243F100039F00960019
:1040C00047EA927780197941DDE90223994208BFD6
:1040D0009042E1D3A94208BFA04205D2241A65EB61
:1040E0000105D046D946CDE707B0BDE8F08F00BF47
:1040F0000050084007B503790193054A036800930F
:1041000006CA0223083001F051FC03B05DF804FB3D
:10411000D08D000070B50D4C0D4B06460D4694E851
:104120000300083483E803001846FFF7E3FF094B58
:1041300094E8030002221A7283E80300DE601D8205
:104140001846BDE8704001F055BC00BFAC8D0000C2
:104150007C1800201C1400200A4B40F2011210B5FC
:104160001A604FF0FF329A6001225A6008441A46E2
:10417000814202D1D869C04310BD11F8014B94614E
:10418000F6E700BF00C00140C0F30323013B10B5B8
:104190000446092B1BD8DFE803F033231B1A05263E
:1041A000291A2C30184B0022C4F3043442B11749A9
:1041B000D1F84401C00703D4D1F840010242FBD139
:1041C00003F1047304EBC3039B0001221A6010BDCA
:1041D0000F4802F001FB02F0E5FB00220D4BE3E784
:1041E00000220D4BE0E701220C4BDDE710220C4BC7
:1041F000DAE74FF480320B4BD6E700220A4BD3E7C5
:104200000022024BD0E700BFB0400E4000400E40FD
:1042100000250800B8400E40C0400E40E0400E406F
:10422000E8400E40F0400E4050410E4010F0080FA4
:1042300014BF1E4A1E4A082310F0010F136014BF5A
:104240001A4A1B4A012310F0040F136014BF194AC5
:10425000194A4FF4007310F0020F136014BF134A91
:10426000134A0223136010F0100F144B00F060008B
:1042700014BF00221B224028DA64114B11D06028A1
:1042800003D0202810D1012208E00E4AD2685AB18A
:104290001168012908D9526942F001021A6100200F
:1042A000704740F20112F9E70022F7E744000846A0
:1042B000440008441C6008461C6008440000084094
:1042C0005C1F0021EC1F002138B50C4BD3F8EC50DB
:1042D00003F18063EC334FF480641C60084B0020D2
:1042E000186002F081FB074B4FF400521A606A0518
:1042F00003D503F1007398331C6038BD00100840EB
:104300001814002054100844F8B5042800F29E80C8
:10431000DFE800F00A03119297008024402506236D
:104320000722002970D17EE04FF400744FF48075AD
:1043300008230922F5E7002973D0454A536A13F090
:10434000300F5ED1434BDB6B536ADC0705D5536AF4
:1043500023F0300343F010035362032202230425A9
:104360003B4C25663C4C23449B001E68002EFCD031
:10437000224494002368002BFCD0022866D1002937
:1043800064D0334B5A6A12F0010F1A463ED04FF4F4
:104390008062C3F8A82020225A665A6A12F0300FB1
:1043A0000CBF4FF440024FF40002D3F8901032EAF1
:1043B0000101FAD1520201D5D3F8A030244E0021D8
:1043C0000220D6F89C70FFF79FFFD6F89030726AF3
:1043D000224B22F0300242F010027262C7F30A0749
:1043E000316BFA0903320F2A03EA010328BF0F22B7
:1043F0003B4343EA0273336335662368002BFCD0EA
:10440000F8BD0322022304250021A9E7536AD2F84C
:10441000903003F44003B3F5400FF8D1D2F8A03048
:10442000CCE7082402230A4A14660B4A1A44920075
:104430001368002BFCD1F8BD0125022400232A4675
:104440006FE720241025042305226AE7F8BD00BF8A
:1044500000400E4000300E408004F21000F8FF0FC4
:1044600070B5134C2268A2F17E63A3F58433B3F5D3
:10447000104FE0B005460E4602D34FF4017015E030
:10448000126BA2F17E63A3F58433B3F5104FF4D21F
:10449000536A69464FF4C0720020984730B92368C8
:1044A0001B6B3246DB6A29466846984760B070BD90
:1044B0002808E10F0F4A10B41468A4F17E62A2F537
:1044C0008432B2F5104F0B460FD2246BA4F17E62FA
:1044D000A2F58432B2F5104F07D22469064A01468C
:1044E000A44600205DF8044B60474FF481705DF8EE
:1044F000044B70472808E10F7A14002070B51C4D5A
:104500002A68A2F17E63A3F58433B3F5104FE0B0BF
:1045100002D34FF4017427E0136B002BF9D05B6AD0
:104520004FF4C0726946002098470446E0B940F253
:1045300001262A68A2F17E63A3F58433B3F5104FF8
:10454000E7D2126BA2F17E63A3F58433B3F5104F6B
:10455000DFD2936A002168469847B042E9D040F222
:104560000323984218BF0446204660B070BD00BFC8
:104570002808E10F042806D80138032806D8DFE808
:1045800000F00202020200231B78FFDE70470000E9
:10459000174BD3F88031032828D8DFE800F0021049
:1045A0001316DBB299B91B0313F4702F1ED11149F6
:1045B000CA6E22F470421343CB6601207047C3F3E6
:1045C0000723EFE7C3F30743ECE71B0EEAE70129F4
:1045D000F3D11B0313F4702F08D10648D0F8EC2058
:1045E00022F470421343C0F8EC30E6E70020704735
:1045F000B081E00F00300E40304B1A6FD96CC90704
:1046000002F0070242D5012A40D9132851D91438A3
:1046100013288CBF102308232849013BC86C1A03B8
:1046200042EA032320F47F421343CB64244BCA6C39
:104630001B88C2F303222833013202EB820003EB12
:104640005303B3FBF0F3C86C013B072B20F0EE6083
:1046500028BF072340F4801040EA0363CB64194B62
:10466000B3F90030002B10DB2833500800EB420276
:1046700003EB5303B3FBF2F30A6D072B28BF0723A9
:1046800022F0700242EA03130B657047DB6CD90716
:1046900006D4012A04D809280BD90A380928B8E712
:1046A000064BDB6C13F00103B6D0012A03D8272890
:1046B000AFE70423B0E70023AEE700BF00300E40B1
:1046C0007614002078140020054A064B1B68136FEF
:1046D00023F007031843044B10671888FFF78CBFBB
:1046E00000300E408009C6437414002042EA0323C0
:1046F00040F2011293422BD0B3F5817F08D2012BF7
:104700001DD030D3B3F5807F31D0002213461CE09A
:1047100040F20122934222D006D8B3F5007FF4D1B3
:10472000174BD3F870310DE0B3F5407F23D040F242
:1047300001329342E9D1124BD3F878310BE0104BA0
:10474000D3F87431C3F30722DBB203600A60704709
:104750000B4BD3F874311A0EC3F30743F5E7084B3C
:10476000D3F87831EEE7064BD3F86C31EAE7044B27
:10477000D3F86C31EFE7024BD3F87031EBE700BFB1
:10478000B081E00F044A1368002BFCD1034B58683A
:10479000C0F30140704700BFC800C64300300E4060
:1047A00038B50E4C0D46D4F8002108B9FFF7F4F8DF
:1047B000D4F80031FFF7F0F80446FFF7E3FF58B1F3
:1047C000074B40221A610021204602F0DDF81DB19E
:1047D000044A1368002BFCD138BD00BF00400E40D6
:1047E00000300E40C800C64300B962B670470000F2
:1047F00000F00F000138072848D8DFE800F0040F68
:104800001947232D4735244BD3F8943003F0070381
:10481000023B022B3CD8214AD05C70471E4BD3F898
:10482000803003F00703013B032B33D81C4AF3E726
:10483000194BD3F8843003F00703013B032B29D82D
:10484000184AE9E7144BD3F8883003F00703013B1B
:10485000032B1FD8144ADFE70F4B1B6F13F0010F18
:1048600014BF0920072070470B4BD3F85C3103F0CD
:104870003003202B06D0302B06D0102B0CBF072086
:1048800001207047042070470820704700207047BF
:10489000052070470120704700400E40C58D000084
:1048A000C88D0000CC8D0000C88D0000044B5A6DEF
:1048B00022B95865A3F858100120704700207047AE
:1048C000981A0020D0B50C4CE38C0A20584302F013
:1048D00087FA0646A08C0F4602F082FA0022074BA8
:1048E00002F0E4FA02460B463046394602F008FC74
:1048F00002F0EEFC2083D0BD981A00200000F43FA7
:104900002DE9F047022886B00E460BD003D80128C7
:1049100000F0FA81FEE7032800F0FE81FF2800F096
:10492000FB81F7E7B64DCC68AB7ED90708D56FF3AE
:104930000003AB7600236B6033682B60FFF7C2FF88
:10494000B77917F0010742D14FF0FF3140F603006D
:10495000FDF7C2FEAB7EAB4C13F0200F12D0696D99
:104960006FF34513AB76002900F0B681237895F8F4
:104970005820627043F003032370A01C02F05FFE16
:1049800000236B65A04801F08CFCAB7E003018BFA3
:10499000012060F34103DAB2AB762378C2F3001151
:1049A00061F38203C2F3C00262F3C30360F3041332
:1049B0002370218840F60200FDF78EFE6178914851
:1049C0000231C9B2FEF7D4FA06B0BDE8F0872188FB
:1049D00040F60300FDF780FE2378AA7EC3F30013A0
:1049E00063F382022378AA76C3F3C001C2F30012F4
:1049F000914208D103F00303022B00F0488104D850
:104A0000012B00F06681002787E0A3787F4A804968
:104A10004FF48050FDF7AEFEA378022B00F0998092
:104A200012D8002B5DD0012B40D07A4A16782EB1D7
:104A3000162B00F0CA80182B00F010817648072250
:104A40000270437002212EE00C2B22D0142B00F0B8
:104A50008F80082BE9D12646704956F8032F7368DA
:104A60004FF480508DE80C006D4AFDF783FE6D4BCE
:104A70003268998AC8B20240674801F47F4106460D
:104A80000A43092106F8011B0023C0F801207360C6
:104A900009E0614800220370012343708370C270F3
:104AA000037142710621FFF701FF36E023895E4A58
:104AB0005E494FF48050FDF75DFE627A237A5C49CF
:104AC00043EA02238B800B465A4A43F8062B2246C0
:104AD00052F8030FC1F806009188998092799A7173
:104AE0001BE0A389544A51494FF48050FDF742FE20
:104AF000627B237B4E4843EA0223838003464F4A6E
:104B000043F8062B224652F8031FC0F806105168DE
:104B1000596011891981927A9A72AB7E2178C3F318
:104B2000C002C1F38001914207D082F0010262F31A
:104B3000C303DBB243F02003AB76002F3FF40AAF90
:104B4000AB7EC3F3001282F0010262F30413AB7672
:104B500000E7E3783A4A3B494FF48050FDF70AFEFC
:104B60002A89334B05329A80374A1A60E278B6E7D1
:104B7000B4F80920B4F803300292B4F80720019287
:104B8000B4F8052000923149314A4FF48050FDF7C6
:104B9000F1FDB4F80530B4F803201F48DB08934258
:104BA00028BF13462B85152300216FF004066FF0F4
:104BB000270203700723817081714670C2700371F0
:104BC0004671C271037209216DE72279E3782149A8
:104BD00000924FF48050204AFDF7CCFD2279E37813
:104BE0000D48134003F00303022B18BF01231722C3
:104BF0000321027043708370FFF758FE37468CE73D
:104C0000981A00203C19002014190020308E000052
:104C1000398E00002C1900202D1900206C8E000008
:104C20001B8E00000C1B0020EC8D00004A8E000043
:104C3000F81A0020695D0000FA8D00000D5D00008B
:104C40000E8E00005A8E0000F95C0000858E000078
:104C5000268E0000C78E0000D88D0000B4F8052015
:104C6000E3780192227900922E492F4A4FF4805026
:104C7000FDF780FD6279A1792C4B42EA01229A80EE
:104C80002B4A1A60D4F80320C3F80620B6E7B946C9
:104C900094F80180B8F1000F3FF43FAF2548868AB1
:104CA00001F0FFFA301A04F1020A80B2B9F1000FE4
:104CB00004D0022886BF023880B200201FFA88F391
:104CC00083423FF6A0AE524649461A4801F02DFBFA
:104CD00023E74FF00009DBE795F828301648A21CBF
:104CE0000DF1170101F08BFBC0B258B19DF81730E0
:104CF000002B0CBF012202222378607062F30103B3
:104D000023703FE60122F7E70C4B9B7E9A073FF5A5
:104D10005BAE5B073FF558AE01F0DEFB01F006FC31
:104D200052E600BFE78E0000DF8D0000F81A002079
:104D3000C95C0000FC18002014190020981A0020FB
:104D4000084A10B5146840F2E243584303FB01419E
:104D5000536800F5807001EB5001184411605060F9
:104D600010BD00BF981A002030B500228BB013464A
:104D7000D91003F00704415C2141CC0741BF0AA9C7
:104D80008918013201F8283C0133252BF0D10D4C54
:104D90000023D91003F00705415C2941C9075FBF13
:104DA0000AAD93FBF2F102FB113149194EBF23709A
:104DB00011F8281C21700133252B04F10104E8D1DE
:104DC0000BB030BDC21A00202DE9F04F3C4C3D4FD6
:104DD00085B02646637A3C4D0133DBB2272B88BF72
:104DE00025232046637200F0FFFFB17B374896F819
:104DF0000C800231FEF7BCF86B68354A5B7A08F02C
:104E00000108404612F803A0FDF796FE314BD5F895
:104E10000080D3F8883013F0A00F08F10C0922D1DC
:104E20005146484600F072FAE8B9484600F06AFD7B
:104E3000C8B9B8F84A3042F21072934298BFD01AFB
:104E400000F0AEF880468946EFF3108B72B6224A26
:104E5000D2F83031DB0703D4D36813F0060A05D04B
:104E60005846FFF7C1FCFDF751FEB3E71B4B039219
:104E700083F800A0FCF710FD039A194BD366194B79
:104E8000C2F870A008221A60134A01234FF400618F
:104E90003B60516640F60141116703200093424692
:104EA0004B4600F03FFB18B90E4B80221A60D7E743
:104EB0005846FFF799FC0C4B2B6105B0BDE8F08F0D
:104EC0009C180020305108440C1B0020A918002019
:104ED0006795000000400840005008403409002059
:104EE0000000010188400844B52F000070B5254935
:104EF0000B78032B44D0244C236823F47F5222F0F8
:104F00000802130A5A2803F47F5316D94D88B5F5C1
:104F1000E16F14D8C92843F6C87632BF00250125B1
:104F2000334613431E2823604FF001030BD8174A62
:104F3000136093610822164B21E00025F1E701255B
:104F400043F6C873EDE7134A502813609361F1D913
:104F50004B88B3F5E16F01D87828EBD90E4A4DF6AE
:104F600001731360002D936102F1007214BF4FF4BE
:104F700057434FF4504313609361084B08221A6063
:104F800070BD00BF0E140020E81F00210841084436
:104F900094400844084108460441084494400846A7
:104FA000084B09491B68096830B54FF000440025DB
:104FB000E3FB00452A460023E0FB01231046194687
:104FC00030BD00BF581A00205C1A002008B5FEF75B
:104FD00099FF0138114A1249124B08281AD8DFE804
:104FE00000F005190F0F1212161616000E48007861
:104FF000116001280CBF4FF0441244221A6008BD12
:1050000011600022FAE711604FF03312F6E71160E9
:10501000A222F3E71160054AF0E700BF50410844BF
:10502000F701F701504108460E140020A200F700D6
:10503000F8B5384B384A002808BF01201860374BB4
:105040009B69C3F38213072B0D46137005D0012211
:1050500002FA03F313F04C0F57D1314B1B78022B9C
:1050600055D0012B0CBF3221B4212E4C002342F22B
:10507000107601FA03F252117243B2FBF4F290423D
:1050800002D30133102BF4D1244C274A254F0904B5
:10509000C4F8BC1040F6FF711160013B02F10072D0
:1050A0001B021360D4F8BC10D4F8BC30D4F8BC2078
:1050B000D4F8B800D4F8B8E0D4F8B860184CCEF3FF
:1050C000031EC6F30326C2F30742C3F3072303FA02
:1050D0000EF3B24000F00F00C9B242F210768140E8
:1050E00052115B1172437343B2FBF7F2B3FBF7F358
:1050F0004911134428464E430121B6FBF7F61E44DE
:10510000A680FEF73DFDA088F8BD0021ADE7962101
:10511000ABE700BF541A00202800002000600840C0
:105120000E14002000DC0500B8600844F8B5044601
:10513000C820FFF7DBFE444B44481E78032E03D102
:10514000FF2404702046F8BD012E414D16D1072CD6
:1051500012D8012C08BF02242A683E4B134043EAB0
:1051600004632B603C4B04221A60A4B2E4B20470C6
:105170002046FFF7BBFEE5E70724EDE7296821F0AD
:10518000F95121F4FE1141F47F5141F008012960E9
:10519000002E48D1042C48D9231FDCB201272F4B05
:1051A000D3F88821D24302F4FE1242F40052B2FA3C
:1051B00082F2C2F11302C2EB4212D3B2A34228BF61
:1051C0002346DBB29AB296BBBC001444244A83BB8C
:1051D000244EC2F858611F26B3FBF6F6F2B202F174
:1051E000010EC6EB461601229E1B02FA0EF2013A90
:1051F0003606920306F1807602F47F1231431143A2
:10520000174A2960D2F85831D4B123F07F4323F0F4
:10521000040343F07F43C2F858314FF480038FB149
:10522000114A1360A2E70027B9E73746B7E7002421
:10523000CBE74FF0E066013BC2F85861DBB2CAE74A
:105240000A4BE8E70A4AECE70E1400201C00002095
:10525000E81F00213F00C0E05841084400400E40D4
:10526000004008402C0000070841084604000007E1
:1052700008410844094A0A494FF48033C2F8E8302B
:105280000B60916B074BC9B29961926BC2F3072215
:105290009A6104229A6100229A61704700100840C6
:1052A000EC10084660100840034B044A1860186070
:1052B000034B12681A60FEE720000020481A002005
:1052C00024000020431E012B03D9031F58425841DC
:1052D0007047012070470000B1F9122047F6FF73B4
:1052E0009A4210B50BD0074B04791978064B186811
:1052F000FDF772F984428CBF0020012010BD01200F
:1053000010BD00BF0E140020481A00202DE9F04FF8
:105310006D4F466A3B68D0F8209089B00025039312
:1053200043880193039B8DF81F50B342044688467F
:105330008DF81E5003D113B1019B99424ED0B9F1A3
:10534000000F00F0BC80D9F80820002A00F0B780D8
:10535000D9F80C20002A00F0B2805C4A049213684D
:1053600002934FF0000A18224FF0010BD9F80C10ED
:105370008A4515D2D9F8085002FB0A55E9894145FA
:1053800031D8298A41452ED32946204605928DF8E9
:105390001EB0FFF7A1FF059A20B38DF81FB02E466F
:1053A0004B4A92F800A09DF81F20A4F10C0BEAB123
:1053B00021792046FDF764F8049B1A68002A63D01F
:1053C00091453AD13968002937D08E4235D1019BB9
:1053D00098451ED16662A4F802800025284609B0CF
:1053E000BDE8F08F2E460AF1010ABFE79DF81E20A6
:1053F000002A66D0B6F9122047F6FF718A4206D01D
:10540000344958460978FDF7E7F80146D1E7FF210E
:10541000CFE70023324641462046FDF7B5F9054661
:105420000028D7D051462046FDF72AF800233A68D5
:1054300001992046FDF7A8F9D0E7116821B3D9F802
:105440000000814220D151682046FCF7D5FE054678
:10545000E8B931682046FCF7CFFE0546B8B9049B91
:105460006662C3F80090A4F80280012332464146E8
:1054700020463E60FDF788F9054640B9164B314697
:105480001B6858469847A9E7D9F80010DCE7049B49
:105490001A46029B1360039B3B60029B1BB1196879
:1054A0002046FCF7A9FE51462046FCF7E9FF3B6881
:1054B000002B93D019682046FCF79EFEB6E7032523
:1054C0008CE701258AE700BF501A00204C1A002003
:1054D0001C0000200E1400202C000020F8B5EFF373
:1054E000108072B60C4B0D4DAE691C780C4B1B68CE
:1054F000E4B25BB90027FFF777F92B6B04F00304E4
:10550000013330463946E4FB0301F8BD0134AE698E
:105510000027E4B2EFE700BF370900200050084041
:10552000880B0A432DE9F04F89B09B469DF848301F
:10553000059305469246EFF31083049372B6A64A8C
:10554000A64E0301134401244FF4807907931C6095
:1055500009FA00F303937366059B022B04D10498A8
:10556000FFF742F9012040E0FFF7B8FF059B012B50
:10557000CDE9000109D11AF1010A4BF1000B10EB42
:105580000A0341EB0B049A46A346306B002110F14D
:10559000010841F100094FEA890343EA98734FEA91
:1055A00088029B4508BF924522D2DDE90067DDE90C
:1055B0000034B6EB0A0667EB0B075C4508BF5345A2
:1055C0000BD2864B1A6B0023013243F10003990082
:1055D000900041EA927136184F41B94508BFB04575
:1055E0000BD30498FFF700F9002009B0BDE8F08F55
:1055F000BAEB020A6BEB030BD3E778490C6FC96E69
:1056000021F0604105F1090324F0E00421F4600178
:105610001A02E404090C1B0642F0010243F4803331
:10562000E40C090494420CBF0424002499426B4BFF
:10563000DB6E23F0E0034FEAC3434FEAD34308BFD6
:1056400044F002049A4208BF44F0010414F001033C
:10565000069302D0624BC3E900ABDDE90067DDE9E8
:105660000023BAEB06066BEB07079B4508BF924584
:105670000BD25A4B1A6B0023013243F100039900FD
:10568000900041EA927136184F414B4642463046EF
:10569000394601F03DFE534BC0B25855CB4508BFCB
:1056A000C24571D278B1069B1BB14F4B41F61F72B8
:1056B0001A60A00742BF4C4B4C4A1A60610742BFB8
:1056C000464B00221A67454E06EB05134246C3F8C7
:1056D0000CA1DDE900014B4601F01AFE00FB09F3C5
:1056E00001FB0833A0FB080110EB0A02194441EB4F
:1056F0000B03994605F110031B0190461122F2504D
:10570000FFF7ECFEDDE900ABDDE90023B0EB0A0AB0
:1057100061EB0B0B994208BF90420CD2326B002315
:10572000013243F100039900900041EA92711AEBB3
:10573000000A4BEB010BDDE90023DDE90001B8EBCA
:10574000020669EB0307894508BF80450BD2234B4E
:105750001A6B0023013243F100039900900041EAE3
:10576000927136184F411D4BBB4508BFB245DA6DEB
:10577000FFF4F5AE03990A427FF4F1AE194A525D87
:10578000012532B11966EAE6BAEB080A6BEB090BA0
:1057900084E7059A22B9079A1560039A5A6620E7AA
:1057A000039A1A66069B43B10F4B114941F61F72CB
:1057B00040F201101A6008601A60A20706D50A4B71
:1057C0000B490A4A0B481A6008601A60630742BF17
:1057D000094B01229A60C2E600510844005008407B
:1057E000401A0020200900206C50084400001F1FB0
:1057F0006C500846000001010040084010B4EFF36F
:10580000108072B60E4A0F490F4C01239365C2F8FF
:10581000883000230B604C6003244C620B490C80E1
:105820000B495DF8044B0B804FF4A021C2F8E8103F
:1058300002F1C062EC321160064A1360FEF7D4BF79
:105840000010084060100840DC0800201E090020FD
:105850001C0900202809002070B586B00E461546A8
:10586000044618220021684601F060F90134054B16
:1058700000936946042001940296039500F04AFBC8
:1058800006B070BD601A002037B50D461446FEF70D
:105890001BF8B8B10369828AC3B14FF6FE718A4220
:1058A00014D100200090ADF804006946984738B93B
:1058B000009B2B60BDF804302380286820B920802D
:1058C00003B030BD0120FBE70020F9E72B60228008
:1058D000F3E737B50D461446FDF7F6FF40B103690F
:1058E00023B1818A4FF6FE72914204D00E2000E06F
:1058F000012003B030BD0095ADF804406946012099
:105900009847F6E7214B1B78D90742BF204A4FF44E
:10591000806111609A0742BF1D4A4FF40061116017
:10592000580742BF1B4A4FF480611160190742BFFC
:10593000184B4FF400621A60174B4FF480621A60E4
:10594000164B00225A61643B1A68920642BF144A01
:105950004FF4807111601B6803F0A003A02B10D1DD
:10596000104A136AC3F30803032B0CD95368D26897
:105970000332C2F30802134403F100531A780A4BAE
:105980005A60002070470320704700BF801A002033
:10599000A0000846A40008461C6008445C1F0021C3
:1059A0008840084600100840FC1E002137B58DE8ED
:1059B000060004469DE80300251D85E805002373C5
:1059C000069B23610A4ABDF81C30A3820023236092
:1059D00013682BB1196809B91C6002E00B46F9E79E
:1059E00014609088013080B2908003B030BD00BF59
:1059F000681A002037B50379124A0333044601932D
:105A000000F14403009306CA02231430FFF7CEFFCF
:105A1000228A0192E268237A009204F12C0094E831
:105A20000600FFF7C3FF237AA4F84500054684F873
:105A300044302279216804F1470001F000FE284635
:105A400003B030BD188F0000002908BF01282DE9E0
:105A5000F04706460F4602EA000803EA010920D093
:105A6000C0F00E81002908BF0428DFF820A235D13C
:105A7000EFF3108072B6DAE9002322F0040242EA62
:105A8000080243EA0903CAE9002358EA090314BFDC
:105A90007C4A7D4A4FF480631360BDE8F047FEF70F
:105AA000A3BEEFF3108072B67849D1E9002322F04B
:105AB000010243EA090342EA0802C1E9002358EA65
:105AC0000903734A4FF0010304D0936302F1C062EB
:105AD0003C32E1E76F490B609363DEE7FDF77CFF43
